{
  "_format": "hh-sol-artifact-1",
  "contractName": "Vault",
  "sourceName": "contracts/Vault.sol",
  "abi": [
    {
      "inputs": [],
      "stateMutability": "nonpayable",
      "type": "constructor"
    },
    {
      "inputs": [
        {
          "internalType": "address",
          "name": "owner",
          "type": "address"
        }
      ],
      "name": "OwnableInvalidOwner",
      "type": "error"
    },
    {
      "inputs": [
        {
          "internalType": "address",
          "name": "account",
          "type": "address"
        }
      ],
      "name": "OwnableUnauthorizedAccount",
      "type": "error"
    },
    {
      "inputs": [],
      "name": "ReentrancyGuardReentrantCall",
      "type": "error"
    },
    {
      "anonymous": false,
      "inputs": [
        {
          "indexed": true,
          "internalType": "address",
          "name": "token",
          "type": "address"
        },
        {
          "indexed": true,
          "internalType": "address",
          "name": "user",
          "type": "address"
        },
        {
          "indexed": false,
          "internalType": "uint256",
          "name": "amount",
          "type": "uint256"
        }
      ],
      "name": "Deposit",
      "type": "event"
    },
    {
      "anonymous": false,
      "inputs": [
        {
          "indexed": true,
          "internalType": "address",
          "name": "previousOwner",
          "type": "address"
        },
        {
          "indexed": true,
          "internalType": "address",
          "name": "newOwner",
          "type": "address"
        }
      ],
      "name": "OwnershipTransferred",
      "type": "event"
    },
    {
      "anonymous": false,
      "inputs": [
        {
          "indexed": true,
          "internalType": "address",
          "name": "token",
          "type": "address"
        },
        {
          "indexed": false,
          "internalType": "bool",
          "name": "isWhitelisted",
          "type": "bool"
        }
      ],
      "name": "WhitelistedToken",
      "type": "event"
    },
    {
      "anonymous": false,
      "inputs": [
        {
          "indexed": true,
          "internalType": "address",
          "name": "token",
          "type": "address"
        },
        {
          "indexed": true,
          "internalType": "address",
          "name": "user",
          "type": "address"
        },
        {
          "indexed": false,
          "internalType": "uint256",
          "name": "amount",
          "type": "uint256"
        }
      ],
      "name": "Withdrawal",
      "type": "event"
    },
    {
      "inputs": [
        {
          "internalType": "address",
          "name": "",
          "type": "address"
        },
        {
          "internalType": "address",
          "name": "",
          "type": "address"
        }
      ],
      "name": "balances",
      "outputs": [
        {
          "internalType": "uint256",
          "name": "",
          "type": "uint256"
        }
      ],
      "stateMutability": "view",
      "type": "function"
    },
    {
      "inputs": [
        {
          "internalType": "address",
          "name": "token",
          "type": "address"
        },
        {
          "internalType": "uint256",
          "name": "amount",
          "type": "uint256"
        }
      ],
      "name": "deposit",
      "outputs": [],
      "stateMutability": "nonpayable",
      "type": "function"
    },
    {
      "inputs": [
        {
          "internalType": "address",
          "name": "token",
          "type": "address"
        }
      ],
      "name": "getBalance",
      "outputs": [
        {
          "internalType": "uint256",
          "name": "",
          "type": "uint256"
        }
      ],
      "stateMutability": "view",
      "type": "function"
    },
    {
      "inputs": [
        {
          "internalType": "address",
          "name": "",
          "type": "address"
        }
      ],
      "name": "isWhitelistedToken",
      "outputs": [
        {
          "internalType": "bool",
          "name": "",
          "type": "bool"
        }
      ],
      "stateMutability": "view",
      "type": "function"
    },
    {
      "inputs": [],
      "name": "owner",
      "outputs": [
        {
          "internalType": "address",
          "name": "",
          "type": "address"
        }
      ],
      "stateMutability": "view",
      "type": "function"
    },
    {
      "inputs": [],
      "name": "renounceOwnership",
      "outputs": [],
      "stateMutability": "nonpayable",
      "type": "function"
    },
    {
      "inputs": [
        {
          "internalType": "address",
          "name": "token",
          "type": "address"
        },
        {
          "internalType": "bool",
          "name": "isWhitelisted",
          "type": "bool"
        }
      ],
      "name": "setWhitelistedToken",
      "outputs": [],
      "stateMutability": "nonpayable",
      "type": "function"
    },
    {
      "inputs": [
        {
          "internalType": "address",
          "name": "newOwner",
          "type": "address"
        }
      ],
      "name": "transferOwnership",
      "outputs": [],
      "stateMutability": "nonpayable",
      "type": "function"
    },
    {
      "inputs": [
        {
          "internalType": "address",
          "name": "token",
          "type": "address"
        },
        {
          "internalType": "address",
          "name": "user",
          "type": "address"
        },
        {
          "internalType": "uint256",
          "name": "amount",
          "type": "uint256"
        }
      ],
      "name": "updateBalance",
      "outputs": [],
      "stateMutability": "nonpayable",
      "type": "function"
    },
    {
      "inputs": [
        {
          "internalType": "address",
          "name": "token",
          "type": "address"
        },
        {
          "internalType": "uint256",
          "name": "amount",
          "type": "uint256"
        }
      ],
      "name": "withdraw",
      "outputs": [],
      "stateMutability": "nonpayable",
      "type": "function"
    }
  ],
  "bytecode": "0x608060405234801561001057600080fd5b5033600073ffffffffffffffffffffffffffffffffffffffff168173ffffffffffffffffffffffffffffffffffffffff16036100845760006040517f1e4fbdf700000000000000000000000000000000000000000000000000000000815260040161007b91906101a5565b60405180910390fd5b610093816100a060201b60201c565b50600180819055506101c0565b60008060009054906101000a900473ffffffffffffffffffffffffffffffffffffffff169050816000806101000a81548173ffffffffffffffffffffffffffffffffffffffff021916908373ffffffffffffffffffffffffffffffffffffffff1602179055508173ffffffffffffffffffffffffffffffffffffffff168173ffffffffffffffffffffffffffffffffffffffff167f8be0079c531659141344cd1fd0a4f28419497f9722a3daafe3b4186f6b6457e060405160405180910390a35050565b600073ffffffffffffffffffffffffffffffffffffffff82169050919050565b600061018f82610164565b9050919050565b61019f81610184565b82525050565b60006020820190506101ba6000830184610196565b92915050565b61120b806101cf6000396000f3fe608060405234801561001057600080fd5b506004361061009e5760003560e01c8063ab37f48611610066578063ab37f4861461011f578063c23f001f1461014f578063f2fde38b1461017f578063f3fef3a31461019b578063f8b2cb4f146101b75761009e565b806334954a99146100a357806347e7ef24146100bf578063715018a6146100db57806376ce28f1146100e55780638da5cb5b14610101575b600080fd5b6100bd60048036038101906100b89190610d51565b6101e7565b005b6100d960048036038101906100d49190610da4565b610431565b005b6100e361068d565b005b6100ff60048036038101906100fa9190610e1c565b6106a1565b005b610109610752565b6040516101169190610e6b565b60405180910390f35b61013960048036038101906101349190610e86565b61077b565b6040516101469190610ec2565b60405180910390f35b61016960048036038101906101649190610edd565b61079b565b6040516101769190610f2c565b60405180910390f35b61019960048036038101906101949190610e86565b6107c0565b005b6101b560048036038101906101b09190610da4565b610846565b005b6101d160048036038101906101cc9190610e86565b610a90565b6040516101de9190610f2c565b60405180910390f35b6101ef610b16565b80600260008473ffffffffffffffffffffffffffffffffffffffff1673ffffffffffffffffffffffffffffffffffffffff16815260200190815260200160002060008573ffffffffffffffffffffffffffffffffffffffff1673ffffffffffffffffffffffffffffffffffffffff1681526020019081526020016000205410156102ae576040517f08c379a00000000000000000000000000000000000000000000000000000000081526004016102a590610fa4565b60405180910390fd5b80600260008473ffffffffffffffffffffffffffffffffffffffff1673ffffffffffffffffffffffffffffffffffffffff16815260200190815260200160002060008573ffffffffffffffffffffffffffffffffffffffff1673ffffffffffffffffffffffffffffffffffffffff168152602001908152602001600020600082825461033a9190610ff3565b925050819055508273ffffffffffffffffffffffffffffffffffffffff1663a9059cbb610365610752565b836040518363ffffffff1660e01b8152600401610383929190611027565b6020604051808303816000875af11580156103a2573d6000803e3d6000fd5b505050506040513d601f19601f820116820180604052508101906103c69190611065565b508173ffffffffffffffffffffffffffffffffffffffff168373ffffffffffffffffffffffffffffffffffffffff167f2717ead6b9200dd235aad468c9809ea400fe33ac69b5bfaa6d3e90fc922b6398836040516104249190610f2c565b60405180910390a3505050565b610439610b9d565b600360008373ffffffffffffffffffffffffffffffffffffffff1673ffffffffffffffffffffffffffffffffffffffff16815260200190815260200160002060009054906101000a900460ff166104c5576040517f08c379a00000000000000000000000000000000000000000000000000000000081526004016104bc906110de565b60405180910390fd5b60008111610508576040517f08c379a00000000000000000000000000000000000000000000000000000000081526004016104ff9061114a565b60405180910390fd5b80600260003373ffffffffffffffffffffffffffffffffffffffff1673ffffffffffffffffffffffffffffffffffffffff16815260200190815260200160002060008473ffffffffffffffffffffffffffffffffffffffff1673ffffffffffffffffffffffffffffffffffffffff1681526020019081526020016000206000828254610594919061116a565b925050819055508173ffffffffffffffffffffffffffffffffffffffff166323b872dd3330846040518463ffffffff1660e01b81526004016105d89392919061119e565b6020604051808303816000875af11580156105f7573d6000803e3d6000fd5b505050506040513d601f19601f8201168201806040525081019061061b9190611065565b503373ffffffffffffffffffffffffffffffffffffffff168273ffffffffffffffffffffffffffffffffffffffff167f5548c837ab068cf56a2c2479df0882a4922fd203edb7517321831d95078c5f62836040516106799190610f2c565b60405180910390a3610689610be3565b5050565b610695610b16565b61069f6000610bec565b565b6106a9610b16565b80600360008473ffffffffffffffffffffffffffffffffffffffff1673ffffffffffffffffffffffffffffffffffffffff16815260200190815260200160002060006101000a81548160ff0219169083151502179055508173ffffffffffffffffffffffffffffffffffffffff167f2a7d9bad4013dd8cf2a7c19bf185edcbd52fa279772f33b21db21efe05559f32826040516107469190610ec2565b60405180910390a25050565b60008060009054906101000a900473ffffffffffffffffffffffffffffffffffffffff16905090565b60036020528060005260406000206000915054906101000a900460ff1681565b6002602052816000526040600020602052806000526040600020600091509150505481565b6107c8610b16565b600073ffffffffffffffffffffffffffffffffffffffff168173ffffffffffffffffffffffffffffffffffffffff160361083a5760006040517f1e4fbdf70000000000000000000000000000000000000000000000000000000081526004016108319190610e6b565b60405180910390fd5b61084381610bec565b50565b61084e610b9d565b80600260003373ffffffffffffffffffffffffffffffffffffffff1673ffffffffffffffffffffffffffffffffffffffff16815260200190815260200160002060008473ffffffffffffffffffffffffffffffffffffffff1673ffffffffffffffffffffffffffffffffffffffff16815260200190815260200160002054101561090d576040517f08c379a000000000000000000000000000000000000000000000000000000000815260040161090490610fa4565b60405180910390fd5b80600260003373ffffffffffffffffffffffffffffffffffffffff1673ffffffffffffffffffffffffffffffffffffffff16815260200190815260200160002060008473ffffffffffffffffffffffffffffffffffffffff1673ffffffffffffffffffffffffffffffffffffffff16815260200190815260200160002060008282546109999190610ff3565b925050819055508173ffffffffffffffffffffffffffffffffffffffff1663a9059cbb33836040518363ffffffff1660e01b81526004016109db929190611027565b6020604051808303816000875af11580156109fa573d6000803e3d6000fd5b505050506040513d601f19601f82011682018060405250810190610a1e9190611065565b503373ffffffffffffffffffffffffffffffffffffffff168273ffffffffffffffffffffffffffffffffffffffff167f2717ead6b9200dd235aad468c9809ea400fe33ac69b5bfaa6d3e90fc922b639883604051610a7c9190610f2c565b60405180910390a3610a8c610be3565b5050565b6000600260003373ffffffffffffffffffffffffffffffffffffffff1673ffffffffffffffffffffffffffffffffffffffff16815260200190815260200160002060008373ffffffffffffffffffffffffffffffffffffffff1673ffffffffffffffffffffffffffffffffffffffff168152602001908152602001600020549050919050565b610b1e610cb0565b73ffffffffffffffffffffffffffffffffffffffff16610b3c610752565b73ffffffffffffffffffffffffffffffffffffffff1614610b9b57610b5f610cb0565b6040517f118cdaa7000000000000000000000000000000000000000000000000000000008152600401610b929190610e6b565b60405180910390fd5b565b600260015403610bd9576040517f3ee5aeb500000000000000000000000000000000000000000000000000000000815260040160405180910390fd5b6002600181905550565b60018081905550565b60008060009054906101000a900473ffffffffffffffffffffffffffffffffffffffff169050816000806101000a81548173ffffffffffffffffffffffffffffffffffffffff021916908373ffffffffffffffffffffffffffffffffffffffff1602179055508173ffffffffffffffffffffffffffffffffffffffff168173ffffffffffffffffffffffffffffffffffffffff167f8be0079c531659141344cd1fd0a4f28419497f9722a3daafe3b4186f6b6457e060405160405180910390a35050565b600033905090565b600080fd5b600073ffffffffffffffffffffffffffffffffffffffff82169050919050565b6000610ce882610cbd565b9050919050565b610cf881610cdd565b8114610d0357600080fd5b50565b600081359050610d1581610cef565b92915050565b6000819050919050565b610d2e81610d1b565b8114610d3957600080fd5b50565b600081359050610d4b81610d25565b92915050565b600080600060608486031215610d6a57610d69610cb8565b5b6000610d7886828701610d06565b9350506020610d8986828701610d06565b9250506040610d9a86828701610d3c565b9150509250925092565b60008060408385031215610dbb57610dba610cb8565b5b6000610dc985828601610d06565b9250506020610dda85828601610d3c565b9150509250929050565b60008115159050919050565b610df981610de4565b8114610e0457600080fd5b50565b600081359050610e1681610df0565b92915050565b60008060408385031215610e3357610e32610cb8565b5b6000610e4185828601610d06565b9250506020610e5285828601610e07565b9150509250929050565b610e6581610cdd565b82525050565b6000602082019050610e806000830184610e5c565b92915050565b600060208284031215610e9c57610e9b610cb8565b5b6000610eaa84828501610d06565b91505092915050565b610ebc81610de4565b82525050565b6000602082019050610ed76000830184610eb3565b92915050565b60008060408385031215610ef457610ef3610cb8565b5b6000610f0285828601610d06565b9250506020610f1385828601610d06565b9150509250929050565b610f2681610d1b565b82525050565b6000602082019050610f416000830184610f1d565b92915050565b600082825260208201905092915050565b7f496e73756666696369656e742062616c616e6365000000000000000000000000600082015250565b6000610f8e601483610f47565b9150610f9982610f58565b602082019050919050565b60006020820190508181036000830152610fbd81610f81565b9050919050565b7f4e487b7100000000000000000000000000000000000000000000000000000000600052601160045260246000fd5b6000610ffe82610d1b565b915061100983610d1b565b925082820390508181111561102157611020610fc4565b5b92915050565b600060408201905061103c6000830185610e5c565b6110496020830184610f1d565b9392505050565b60008151905061105f81610df0565b92915050565b60006020828403121561107b5761107a610cb8565b5b600061108984828501611050565b91505092915050565b7f546f6b656e206973206e6f742077686974656c69737465640000000000000000600082015250565b60006110c8601883610f47565b91506110d382611092565b602082019050919050565b600060208201905081810360008301526110f7816110bb565b9050919050565b7f416d6f756e74206d7573742062652067726561746572207468616e2030000000600082015250565b6000611134601d83610f47565b915061113f826110fe565b602082019050919050565b6000602082019050818103600083015261116381611127565b9050919050565b600061117582610d1b565b915061118083610d1b565b925082820190508082111561119857611197610fc4565b5b92915050565b60006060820190506111b36000830186610e5c565b6111c06020830185610e5c565b6111cd6040830184610f1d565b94935050505056fea2646970667358221220bdddd4ad9b8a3357b2c8fba35d7878d814ab1c1b5ca41e910a8c8bc78721574c64736f6c634300081c0033",
  "linkReferences": {},
  "deployedLinkReferences": {}
}